{
  "transactions": [
    {
      "hash": "0x8821359be07d3e2e6eba170f320f24ea2a8dd8c56f4c4bc4431f16220ca2bf7f",
      "transactionType": "CREATE",
      "contractName": "MockToken",
      "contractAddress": "0xcc86f7903f52eeb20c512d26c829e1545d577c47",
      "function": null,
      "arguments": null,
      "transaction": {
        "from": "0x1726cf86da996bc4b2f393e713f6f8ef83f2e4f6",
        "gas": "0xd1853",
        "value": "0x0",
        "input": "0x608060405234801561000f575f80fd5b50336040518060400160405280600a81526020016926b7b1b5902a37b5b2b760b11b815250604051806040016040528060048152602001634d4f434b60e01b81525081600390816100609190610316565b50600461006d8282610316565b5050506001600160a01b03811661009e57604051631e4fbdf760e01b81525f60048201526024015b60405180910390fd5b6100a7816100cf565b506100ca336100b86012600a6104cb565b6100c590620f42406104e0565b610120565b61050a565b600580546001600160a01b038381166001600160a01b0319831681179093556040519116919082907f8be0079c531659141344cd1fd0a4f28419497f9722a3daafe3b4186f6b6457e0905f90a35050565b6001600160a01b0382166101495760405163ec442f0560e01b81525f6004820152602401610095565b6101545f8383610158565b5050565b6001600160a01b038316610182578060025f82825461017791906104f7565b909155506101f29050565b6001600160a01b0383165f90815260208190526040902054818110156101d45760405163391434e360e21b81526001600160a01b03851660048201526024810182905260448101839052606401610095565b6001600160a01b0384165f9081526020819052604090209082900390555b6001600160a01b03821661020e5760028054829003905561022c565b6001600160a01b0382165f9081526020819052604090208054820190555b816001600160a01b0316836001600160a01b03167fddf252ad1be2c89b69c2b068fc378daa952ba7f163c4a11628f55a4df523b3ef8360405161027191815260200190565b60405180910390a3505050565b634e487b7160e01b5f52604160045260245ffd5b600181811c908216806102a657607f821691505b6020821081036102c457634e487b7160e01b5f52602260045260245ffd5b50919050565b601f82111561031157805f5260205f20601f840160051c810160208510156102ef5750805b601f840160051c820191505b8181101561030e575f81556001016102fb565b50505b505050565b81516001600160401b0381111561032f5761032f61027e565b6103438161033d8454610292565b846102ca565b602080601f831160018114610376575f841561035f5750858301515b5f19600386901b1c1916600185901b1785556103cd565b5f85815260208120601f198616915b828110156103a457888601518255948401946001909101908401610385565b50858210156103c157878501515f19600388901b60f8161c191681555b505060018460011b0185555b505050505050565b634e487b7160e01b5f52601160045260245ffd5b600181815b8085111561042357815f1904821115610409576104096103d5565b8085161561041657918102915b93841c93908002906103ee565b509250929050565b5f82610439575060016104c5565b8161044557505f6104c5565b816001811461045b576002811461046557610481565b60019150506104c5565b60ff841115610476576104766103d5565b50506001821b6104c5565b5060208310610133831016604e8410600b84101617156104a4575081810a6104c5565b6104ae83836103e9565b805f19048211156104c1576104c16103d5565b0290505b92915050565b5f6104d960ff84168361042b565b9392505050565b80820281158282048414176104c5576104c56103d5565b808201808211156104c5576104c56103d5565b610881806105175f395ff3fe608060405234801561000f575f80fd5b50600436106100cb575f3560e01c806370a082311161008857806395d89b411161006357806395d89b41146101a4578063a9059cbb146101ac578063dd62ed3e146101bf578063f2fde38b146101f7575f80fd5b806370a0823114610159578063715018a6146101815780638da5cb5b14610189575f80fd5b806306fdde03146100cf578063095ea7b3146100ed57806318160ddd1461011057806323b872dd14610122578063313ce5671461013557806340c10f1914610144575b5f80fd5b6100d761020a565b6040516100e491906106f2565b60405180910390f35b6101006100fb366004610742565b61029a565b60405190151581526020016100e4565b6002545b6040519081526020016100e4565b61010061013036600461076a565b6102b3565b604051601281526020016100e4565b610157610152366004610742565b6102d6565b005b6101146101673660046107a3565b6001600160a01b03165f9081526020819052604090205490565b6101576102ec565b6005546040516001600160a01b0390911681526020016100e4565b6100d76102ff565b6101006101ba366004610742565b61030e565b6101146101cd3660046107c3565b6001600160a01b039182165f90815260016020908152604080832093909416825291909152205490565b6101576102053660046107a3565b61031b565b606060038054610219906107f4565b80601f0160208091040260200160405190810160405280929190818152602001828054610245906107f4565b80156102905780601f1061026757610100808354040283529160200191610290565b820191905f5260205f20905b81548152906001019060200180831161027357829003601f168201915b5050505050905090565b5f336102a781858561035d565b60019150505b92915050565b5f336102c085828561036f565b6102cb8585856103eb565b506001949350505050565b6102de610448565b6102e88282610475565b5050565b6102f4610448565b6102fd5f6104a9565b565b606060048054610219906107f4565b5f336102a78185856103eb565b610323610448565b6001600160a01b03811661035157604051631e4fbdf760e01b81525f60048201526024015b60405180910390fd5b61035a816104a9565b50565b61036a83838360016104fa565b505050565b6001600160a01b038381165f908152600160209081526040808320938616835292905220545f198110156103e557818110156103d757604051637dc7a0d960e11b81526001600160a01b03841660048201526024810182905260448101839052606401610348565b6103e584848484035f6104fa565b50505050565b6001600160a01b03831661041457604051634b637e8f60e11b81525f6004820152602401610348565b6001600160a01b03821661043d5760405163ec442f0560e01b81525f6004820152602401610348565b61036a8383836105cc565b6005546001600160a01b031633146102fd5760405163118cdaa760e01b8152336004820152602401610348565b6001600160a01b03821661049e5760405163ec442f0560e01b81525f6004820152602401610348565b6102e85f83836105cc565b600580546001600160a01b038381166001600160a01b0319831681179093556040519116919082907f8be0079c531659141344cd1fd0a4f28419497f9722a3daafe3b4186f6b6457e0905f90a35050565b6001600160a01b0384166105235760405163e602df0560e01b81525f6004820152602401610348565b6001600160a01b03831661054c57604051634a1406b160e11b81525f6004820152602401610348565b6001600160a01b038085165f90815260016020908152604080832093871683529290522082905580156103e557826001600160a01b0316846001600160a01b03167f8c5be1e5ebec7d5bd14f71427d1e84f3dd0314c0f7b2291e5b200ac8c7c3b925846040516105be91815260200190565b60405180910390a350505050565b6001600160a01b0383166105f6578060025f8282546105eb919061082c565b909155506106669050565b6001600160a01b0383165f90815260208190526040902054818110156106485760405163391434e360e21b81526001600160a01b03851660048201526024810182905260448101839052606401610348565b6001600160a01b0384165f9081526020819052604090209082900390555b6001600160a01b038216610682576002805482900390556106a0565b6001600160a01b0382165f9081526020819052604090208054820190555b816001600160a01b0316836001600160a01b03167fddf252ad1be2c89b69c2b068fc378daa952ba7f163c4a11628f55a4df523b3ef836040516106e591815260200190565b60405180910390a3505050565b602081525f82518060208401528060208501604085015e5f604082850101526040601f19601f83011684010191505092915050565b80356001600160a01b038116811461073d575f80fd5b919050565b5f8060408385031215610753575f80fd5b61075c83610727565b946020939093013593505050565b5f805f6060848603121561077c575f80fd5b61078584610727565b925061079360208501610727565b9150604084013590509250925092565b5f602082840312156107b3575f80fd5b6107bc82610727565b9392505050565b5f80604083850312156107d4575f80fd5b6107dd83610727565b91506107eb60208401610727565b90509250929050565b600181811c9082168061080857607f821691505b60208210810361082657634e487b7160e01b5f52602260045260245ffd5b50919050565b808201808211156102ad57634e487b7160e01b5f52601160045260245ffdfea2646970667358221220214df8d9c7672b35250100b221b5749d800ee374c8372f630bc90351791cdde764736f6c63430008190033",
        "nonce": "0x80",
        "chainId": "0xa"
      },
      "additionalContracts": [],
      "isFixedGasLimit": false
    },
    {
      "hash": "0x15273fa64b8d9095c75d219bf674b7db914e1e7da1103519f2bac945bdd3a09e",
      "transactionType": "CREATE",
      "contractName": "Airdrop",
      "contractAddress": "0x89622d291439bf4ded4264169ad4530363a023cb",
      "function": null,
      "arguments": null,
      "transaction": {
        "from": "0x1726cf86da996bc4b2f393e713f6f8ef83f2e4f6",
        "gas": "0xf79dc",
        "value": "0x0",
        "input": "0x610120604052348015610010575f80fd5b50306080524660a052336060806100596040805180820182526007815266041697264726f760cc1b602080830191909152825180840190935260018352603160f81b9083015291565b815160209283012081519183019190912060c082905260e0819052604080517f8b73c3c69bb8fe3d512ecc4cf759cc79239f7b179b0ffacaa9a75d522b39400f8152938401929092529082015246606082015230608082015260a090206101005250506001600160a01b0381166100e957604051631e4fbdf760e01b81525f600482015260240160405180910390fd5b6100f2816100f8565b50610147565b5f80546001600160a01b038381166001600160a01b0319831681178455604051919092169283917f8be0079c531659141344cd1fd0a4f28419497f9722a3daafe3b4186f6b6457e09190a35050565b60805160a05160c05160e05161010051610c986101755f395f50505f50505f50505f50505f5050610c985ff3fe6080604052600436106100a5575f3560e01c80638da5cb5b116100625780638da5cb5b1461017557806395f5c1201461019b578063c1f0808a146101c6578063d12acf7314610204578063ecf3d3d414610223578063f2fde38b14610242575f80fd5b80630d5818f7146100a95780633dc28d49146100be57806356b0b449146100fc578063715018a61461011b5780638259a87b1461012f57806384b0196e1461014e575b5f80fd5b6100bc6100b7366004610981565b610261565b005b3480156100c9575f80fd5b506100e96100d83660046109db565b60016020525f908152604090205481565b6040519081526020015b60405180910390f35b348015610107575f80fd5b506100bc6101163660046109f4565b610361565b348015610126575f80fd5b506100bc610404565b34801561013a575f80fd5b506100bc610149366004610a43565b610417565b348015610159575f80fd5b50610162610491565b6040516100f39796959493929190610ab2565b348015610180575f80fd5b505f546040516001600160a01b0390911681526020016100f3565b3480156101a6575f80fd5b506100e96101b53660046109db565b60026020525f908152604090205481565b3480156101d1575f80fd5b506101f46101e0366004610b49565b60046020525f908152604090205460ff1681565b60405190151581526020016100f3565b34801561020f575f80fd5b506101f461021e366004610b60565b6104eb565b34801561022e575f80fd5b506100bc61023d366004610b99565b6105e1565b34801561024d575f80fd5b506100bc61025c3660046109db565b610789565b6102696107cb565b805f805b828110156102f25784848281811061028757610287610c2f565b905060400201602001358261029c9190610c43565b91506102ea8585838181106102b3576102b3610c2f565b6102c992602060409092020190810191506109db565b8686848181106102db576102db610c2f565b905060400201602001356107f7565b60010161026d565b503481146103135760405163688bc80560e11b815260040160405180910390fd5b60405173eeeeeeeeeeeeeeeeeeeeeeeeeeeeeeeeeeeeeeee81527f84b8d6a5d5e1034bc8734d8fff0d20ab52702355d302ba88515a311d8ce0dd7d906020015b60405180910390a150505050565b6103696107cb565b805f5b818110156103ca576103c2853386868581811061038b5761038b610c2f565b6103a192602060409092020190810191506109db565b8787868181106103b3576103b3610c2f565b90506040020160200135610814565b60010161036c565b506040516001600160a01b03851681527f84b8d6a5d5e1034bc8734d8fff0d20ab52702355d302ba88515a311d8ce0dd7d90602001610353565b61040c6107cb565b6104155f61086d565b565b61041f6107cb565b808061044057506001600160a01b0383165f90815260016020526040902054155b15610475576001600160a01b0383165f908152600160208190526040822080549192909161046f908490610c43565b90915550505b506001600160a01b039091165f90815260026020526040902055565b600f60f81b6060805f8080836104d96040805180820182526007815266041697264726f760cc1b602080830191909152825180840190935260018352603160f81b9083015291565b97989097965046955030945091925090565b6001600160a01b0382165f9081526001602090815260408083205481516001600160601b0319606089811b82168387015288901b16603482015260488082018790528351808303909101815260689091018352805190840120818552600384528285208186529093529083205490919060ff161561056e576001925050506105da565b6040516001600160601b0319606088811b8216602084015287901b16603482015260480160408051601f1981840301815291815281516020928301205f8581526003845282812082825290935291205490915060ff16156105d4576001925050506105da565b5f925050505b9392505050565b5f6105ec85876108bc565b6001600160a01b0387165f9081526001602090815260408083205480845260038352818420858552909252909120549192509060ff16156106405760405163e4ca4c0b60e01b815260040160405180910390fd5b6001600160a01b0387165f908152600260205260409020548061067657604051633932410b60e11b815260040160405180910390fd5b5f6106dc8686848b8b6040516020016106a49291906001600160a01b03929092168252602082015260400190565b60408051601f198184030181528282528051602091820120908301520160405160208183030381529060405280519060200120610901565b9050806106fc57604051638738f09b60e01b815260040160405180910390fd5b5f8381526003602090815260408083208784529091529020805460ff1916600117905561073b896107345f546001600160a01b031690565b8a8a610814565b604080516001600160a01b03808c1682528a1660208201527fe36722f357b07c721b246e0a5cb2fa0015c07ad3df67bca291504054a7998394910160405180910390a1505050505050505050565b6107916107cb565b6001600160a01b0381166107bf57604051631e4fbdf760e01b81525f60048201526024015b60405180910390fd5b6107c88161086d565b50565b5f546001600160a01b031633146104155760405163118cdaa760e01b81523360048201526024016107b6565b5f385f3884865af16108105763b12d13eb5f526004601cfd5b5050565b60405181606052826040528360601b602c526323b872dd60601b600c5260205f6064601c5f895af18060015f51141661085f57803d873b15171061085f57637939f4245f526004601cfd5b505f60605260405250505050565b5f80546001600160a01b038381166001600160a01b0319831681178455604051919092169283917f8be0079c531659141344cd1fd0a4f28419497f9722a3daafe3b4186f6b6457e09190a35050565b6040516001600160601b0319606084811b8216602084015283901b1660348201525f906048016040516020818303038152906040528051906020012090505b92915050565b5f8315610931578360051b8501855b803580851160051b94855260209485185260405f2093018181106109105750505b501492915050565b5f8083601f840112610949575f80fd5b50813567ffffffffffffffff811115610960575f80fd5b6020830191508360208260061b850101111561097a575f80fd5b9250929050565b5f8060208385031215610992575f80fd5b823567ffffffffffffffff8111156109a8575f80fd5b6109b485828601610939565b90969095509350505050565b80356001600160a01b03811681146109d6575f80fd5b919050565b5f602082840312156109eb575f80fd5b6105da826109c0565b5f805f60408486031215610a06575f80fd5b610a0f846109c0565b9250602084013567ffffffffffffffff811115610a2a575f80fd5b610a3686828701610939565b9497909650939450505050565b5f805f60608486031215610a55575f80fd5b610a5e846109c0565b92506020840135915060408401358015158114610a79575f80fd5b809150509250925092565b5f81518084528060208401602086015e5f602082860101526020601f19601f83011685010191505092915050565b60ff60f81b881681525f602060e06020840152610ad260e084018a610a84565b8381036040850152610ae4818a610a84565b606085018990526001600160a01b038816608086015260a0850187905284810360c0860152855180825260208088019350909101905f5b81811015610b3757835183529284019291840191600101610b1b565b50909c9b505050505050505050505050565b5f60208284031215610b59575f80fd5b5035919050565b5f805f60608486031215610b72575f80fd5b610b7b846109c0565b9250610b89602085016109c0565b9150604084013590509250925092565b5f805f805f60808688031215610bad575f80fd5b610bb6866109c0565b9450610bc4602087016109c0565b935060408601359250606086013567ffffffffffffffff80821115610be7575f80fd5b818801915088601f830112610bfa575f80fd5b813581811115610c08575f80fd5b8960208260051b8501011115610c1c575f80fd5b9699959850939650602001949392505050565b634e487b7160e01b5f52603260045260245ffd5b808201808211156108fb57634e487b7160e01b5f52601160045260245ffdfea26469706673582212207766f102613fe45d3efed53de309f5357691d27a4bdce848eeb00c9210b7483164736f6c63430008190033",
        "nonce": "0x81",
        "chainId": "0xa"
      },
      "additionalContracts": [],
      "isFixedGasLimit": false
    },
    {
      "hash": "0x989a4bc55b19172c4f5e69374edf3096376f6a34d337155e9a186013a05e942d",
      "transactionType": "CALL",
      "contractName": "Airdrop",
      "contractAddress": "0x89622d291439bf4ded4264169ad4530363a023cb",
      "function": "setMerkleRoot(address,bytes32,bool)",
      "arguments": [
        "0xcc86F7903f52EEb20c512D26C829e1545D577c47",
        "0x91673d887a585a027b96f72ced7bdc3c67fd0725fbd74fe1c8e1cba3b6419681",
        "true"
      ],
      "transaction": {
        "from": "0x1726cf86da996bc4b2f393e713f6f8ef83f2e4f6",
        "to": "0x89622d291439bf4ded4264169ad4530363a023cb",
        "gas": "0x1759a",
        "value": "0x0",
        "input": "0x8259a87b000000000000000000000000cc86f7903f52eeb20c512d26c829e1545d577c4791673d887a585a027b96f72ced7bdc3c67fd0725fbd74fe1c8e1cba3b64196810000000000000000000000000000000000000000000000000000000000000001",
        "nonce": "0x82",
        "chainId": "0xa"
      },
      "additionalContracts": [],
      "isFixedGasLimit": false
    },
    {
      "hash": "0x589a34e3eb3ace1e6fc83d129226b255ef9cb3412891baff681b03c7a6ca6d06",
      "transactionType": "CALL",
      "contractName": "MockToken",
      "contractAddress": "0xcc86f7903f52eeb20c512d26c829e1545d577c47",
      "function": "mint(address,uint256)",
      "arguments": [
        "0x1726cf86DA996BC4B2F393E713f6F8ef83f2e4f6",
        "10000000000000000000000000"
      ],
      "transaction": {
        "from": "0x1726cf86da996bc4b2f393e713f6f8ef83f2e4f6",
        "to": "0xcc86f7903f52eeb20c512d26c829e1545d577c47",
        "gas": "0xd09a",
        "value": "0x0",
        "input": "0x40c10f190000000000000000000000001726cf86da996bc4b2f393e713f6f8ef83f2e4f6000000000000000000000000000000000000000000084595161401484a000000",
        "nonce": "0x83",
        "chainId": "0xa"
      },
      "additionalContracts": [],
      "isFixedGasLimit": false
    },
    {
      "hash": "0xc2c6e0a1188d036f3f5eb01960243793fba8e87e526675952a841b1c4bd1e96e",
      "transactionType": "CALL",
      "contractName": "MockToken",
      "contractAddress": "0xcc86f7903f52eeb20c512d26c829e1545d577c47",
      "function": "approve(address,uint256)",
      "arguments": [
        "0x89622D291439Bf4deD4264169AD4530363a023Cb",
        "10000000000000000000000000"
      ],
      "transaction": {
        "from": "0x1726cf86da996bc4b2f393e713f6f8ef83f2e4f6",
        "to": "0xcc86f7903f52eeb20c512d26c829e1545d577c47",
        "gas": "0xfa4d",
        "value": "0x0",
        "input": "0x095ea7b300000000000000000000000089622d291439bf4ded4264169ad4530363a023cb000000000000000000000000000000000000000000084595161401484a000000",
        "nonce": "0x84",
        "chainId": "0xa"
      },
      "additionalContracts": [],
      "isFixedGasLimit": false
    }
  ],
  "receipts": [
    {
      "status": "0x1",
      "cumulativeGasUsed": "0x668042",
      "logs": [
        {
          "address": "0xcc86f7903f52eeb20c512d26c829e1545d577c47",
          "topics": [
            "0x8be0079c531659141344cd1fd0a4f28419497f9722a3daafe3b4186f6b6457e0",
            "0x0000000000000000000000000000000000000000000000000000000000000000",
            "0x0000000000000000000000001726cf86da996bc4b2f393e713f6f8ef83f2e4f6"
          ],
          "data": "0x",
          "blockHash": "0x68793000cc7b5037dde3bf367908334e6222653b3e4149859087dbf30bb1e060",
          "blockNumber": "0x7ce306a",
          "transactionHash": "0x8821359be07d3e2e6eba170f320f24ea2a8dd8c56f4c4bc4431f16220ca2bf7f",
          "transactionIndex": "0x19",
          "logIndex": "0x78",
          "removed": false
        },
        {
          "address": "0xcc86f7903f52eeb20c512d26c829e1545d577c47",
          "topics": [
            "0xddf252ad1be2c89b69c2b068fc378daa952ba7f163c4a11628f55a4df523b3ef",
            "0x0000000000000000000000000000000000000000000000000000000000000000",
            "0x0000000000000000000000001726cf86da996bc4b2f393e713f6f8ef83f2e4f6"
          ],
          "data": "0x00000000000000000000000000000000000000000000d3c21bcecceda1000000",
          "blockHash": "0x68793000cc7b5037dde3bf367908334e6222653b3e4149859087dbf30bb1e060",
          "blockNumber": "0x7ce306a",
          "transactionHash": "0x8821359be07d3e2e6eba170f320f24ea2a8dd8c56f4c4bc4431f16220ca2bf7f",
          "transactionIndex": "0x19",
          "logIndex": "0x79",
          "removed": false
        }
      ],
      "logsBloom": "0x00000000000000000000000000000000000000000000000000800000000000000000040000000000000000000000000000000000000000000000000000000000000000000000000000000008000000000001000000000000000000000000000000000000020000000000000000000800000000000000000000000010000000400000000000000002000000000000000000000000000000000000000000000000000000000000000000000000000000000000000000000000000000000000000000000002000000000000000000000000000000000000000000000000800020000000000000000000040000000002000002000000000000000000000000000000",
      "type": "0x2",
      "transactionHash": "0x8821359be07d3e2e6eba170f320f24ea2a8dd8c56f4c4bc4431f16220ca2bf7f",
      "transactionIndex": "0x19",
      "blockHash": "0x68793000cc7b5037dde3bf367908334e6222653b3e4149859087dbf30bb1e060",
      "blockNumber": "0x7ce306a",
      "gasUsed": "0xa12b6",
      "effectiveGasPrice": "0x1f3",
      "from": "0x1726cf86da996bc4b2f393e713f6f8ef83f2e4f6",
      "to": null,
      "contractAddress": "0xcc86f7903f52eeb20c512d26c829e1545d577c47",
      "l1BaseFeeScalar": "0x146b",
      "l1BlobBaseFee": "0x5c6712e7",
      "l1BlobBaseFeeScalar": "0xf79c5",
      "l1Fee": "0x445d0d04ce7",
      "l1GasPrice": "0x20f370cd1",
      "l1GasUsed": "0x7efe"
    },
    {
      "status": "0x1",
      "cumulativeGasUsed": "0x7267d8",
      "logs": [
        {
          "address": "0x89622d291439bf4ded4264169ad4530363a023cb",
          "topics": [
            "0x8be0079c531659141344cd1fd0a4f28419497f9722a3daafe3b4186f6b6457e0",
            "0x0000000000000000000000000000000000000000000000000000000000000000",
            "0x0000000000000000000000001726cf86da996bc4b2f393e713f6f8ef83f2e4f6"
          ],
          "data": "0x",
          "blockHash": "0x68793000cc7b5037dde3bf367908334e6222653b3e4149859087dbf30bb1e060",
          "blockNumber": "0x7ce306a",
          "transactionHash": "0x15273fa64b8d9095c75d219bf674b7db914e1e7da1103519f2bac945bdd3a09e",
          "transactionIndex": "0x1a",
          "logIndex": "0x7a",
          "removed": false
        }
      ],
      "logsBloom": "0x00000000000000000000000000000000000000000000000100800000000000000000000000000000000000004000000000000000000000000000000000000000000000000000000000000000000000000001000000000000000000000000000000000000020000000000000000000800000000000000000000000000000000400000000000000002000000000000000000000000000000000000000000000000008000000000000000000000000000000000000000000000000000000000000000000000000000000000000000000000000000000000000000000000800020000000000000000000000000000002000000000000000000000000000000000000",
      "type": "0x2",
      "transactionHash": "0x15273fa64b8d9095c75d219bf674b7db914e1e7da1103519f2bac945bdd3a09e",
      "transactionIndex": "0x1a",
      "blockHash": "0x68793000cc7b5037dde3bf367908334e6222653b3e4149859087dbf30bb1e060",
      "blockNumber": "0x7ce306a",
      "gasUsed": "0xbe796",
      "effectiveGasPrice": "0x1f3",
      "from": "0x1726cf86da996bc4b2f393e713f6f8ef83f2e4f6",
      "to": null,
      "contractAddress": "0x89622d291439bf4ded4264169ad4530363a023cb",
      "l1BaseFeeScalar": "0x146b",
      "l1BlobBaseFee": "0x5c6712e7",
      "l1BlobBaseFeeScalar": "0xf79c5",
      "l1Fee": "0x4afa2c3fd97",
      "l1GasPrice": "0x20f370cd1",
      "l1GasUsed": "0x8b48"
    },
    {
      "status": "0x1",
      "cumulativeGasUsed": "0x737654",
      "logs": [],
      "logsBloom": "0x00000000000000000000000000000000000000000000000000000000000000000000000000000000000000000000000000000000000000000000000000000000000000000000000000000000000000000000000000000000000000000000000000000000000000000000000000000000000000000000000000000000000000000000000000000000000000000000000000000000000000000000000000000000000000000000000000000000000000000000000000000000000000000000000000000000000000000000000000000000000000000000000000000000000000000000000000000000000000000000000000000000000000000000000000000000",
      "type": "0x2",
      "transactionHash": "0x989a4bc55b19172c4f5e69374edf3096376f6a34d337155e9a186013a05e942d",
      "transactionIndex": "0x1b",
      "blockHash": "0x68793000cc7b5037dde3bf367908334e6222653b3e4149859087dbf30bb1e060",
      "blockNumber": "0x7ce306a",
      "gasUsed": "0x10e7c",
      "effectiveGasPrice": "0x1f3",
      "from": "0x1726cf86da996bc4b2f393e713f6f8ef83f2e4f6",
      "to": "0x89622d291439bf4ded4264169ad4530363a023cb",
      "contractAddress": null,
      "l1BaseFeeScalar": "0x146b",
      "l1BlobBaseFee": "0x5c6712e7",
      "l1BlobBaseFeeScalar": "0xf79c5",
      "l1Fee": "0x3a211d3481",
      "l1GasPrice": "0x20f370cd1",
      "l1GasUsed": "0x6bf"
    },
    {
      "status": "0x1",
      "cumulativeGasUsed": "0x7404f7",
      "logs": [
        {
          "address": "0xcc86f7903f52eeb20c512d26c829e1545d577c47",
          "topics": [
            "0xddf252ad1be2c89b69c2b068fc378daa952ba7f163c4a11628f55a4df523b3ef",
            "0x0000000000000000000000000000000000000000000000000000000000000000",
            "0x0000000000000000000000001726cf86da996bc4b2f393e713f6f8ef83f2e4f6"
          ],
          "data": "0x000000000000000000000000000000000000000000084595161401484a000000",
          "blockHash": "0x68793000cc7b5037dde3bf367908334e6222653b3e4149859087dbf30bb1e060",
          "blockNumber": "0x7ce306a",
          "transactionHash": "0x589a34e3eb3ace1e6fc83d129226b255ef9cb3412891baff681b03c7a6ca6d06",
          "transactionIndex": "0x1c",
          "logIndex": "0x7b",
          "removed": false
        }
      ],
      "logsBloom": "0x00000000000000000000000000000000000000000000000000000000000000000000040000000000000000000000000000000000000000000000000000000000000000000000000000000008000000000000000000000000000000000000000000000000020000000000000000000800000000000000000000000010000000000000000000000002000000000000000000000000000000000000000000000000000000000000000000000000000000000000000000000000000000000000000000000002000000000000000000000000000000000000000000000000800020000000000000000000040000000002000002000000000000000000000000000000",
      "type": "0x2",
      "transactionHash": "0x589a34e3eb3ace1e6fc83d129226b255ef9cb3412891baff681b03c7a6ca6d06",
      "transactionIndex": "0x1c",
      "blockHash": "0x68793000cc7b5037dde3bf367908334e6222653b3e4149859087dbf30bb1e060",
      "blockNumber": "0x7ce306a",
      "gasUsed": "0x8ea3",
      "effectiveGasPrice": "0x1f3",
      "from": "0x1726cf86da996bc4b2f393e713f6f8ef83f2e4f6",
      "to": "0xcc86f7903f52eeb20c512d26c829e1545d577c47",
      "contractAddress": null,
      "l1BaseFeeScalar": "0x146b",
      "l1BlobBaseFee": "0x5c6712e7",
      "l1BlobBaseFeeScalar": "0xf79c5",
      "l1Fee": "0x35d4ccc5f4",
      "l1GasPrice": "0x20f370cd1",
      "l1GasUsed": "0x640"
    },
    {
      "status": "0x1",
      "cumulativeGasUsed": "0x74ba2e",
      "logs": [
        {
          "address": "0xcc86f7903f52eeb20c512d26c829e1545d577c47",
          "topics": [
            "0x8c5be1e5ebec7d5bd14f71427d1e84f3dd0314c0f7b2291e5b200ac8c7c3b925",
            "0x0000000000000000000000001726cf86da996bc4b2f393e713f6f8ef83f2e4f6",
            "0x00000000000000000000000089622d291439bf4ded4264169ad4530363a023cb"
          ],
          "data": "0x000000000000000000000000000000000000000000084595161401484a000000",
          "blockHash": "0x68793000cc7b5037dde3bf367908334e6222653b3e4149859087dbf30bb1e060",
          "blockNumber": "0x7ce306a",
          "transactionHash": "0xc2c6e0a1188d036f3f5eb01960243793fba8e87e526675952a841b1c4bd1e96e",
          "transactionIndex": "0x1d",
          "logIndex": "0x7c",
          "removed": false
        }
      ],
      "logsBloom": "0x00000000000000000000000000000000000000000000000000000000000000000000040000000000000000000000000000000000000000000000000000200000000000000000000000000000000000000000000000000000000000000000000000000000000000000000000000000000000100000000000000000000000000000000000000000002000000000000000000000000000000000000000000000800020000000000000000000000000000000000000080000000000000000000000000000000000000000000000000000000000000000000000000000000800000000010000000000000040000000002000002000000000000000000000000000000",
      "type": "0x2",
      "transactionHash": "0xc2c6e0a1188d036f3f5eb01960243793fba8e87e526675952a841b1c4bd1e96e",
      "transactionIndex": "0x1d",
      "blockHash": "0x68793000cc7b5037dde3bf367908334e6222653b3e4149859087dbf30bb1e060",
      "blockNumber": "0x7ce306a",
      "gasUsed": "0xb537",
      "effectiveGasPrice": "0x1f3",
      "from": "0x1726cf86da996bc4b2f393e713f6f8ef83f2e4f6",
      "to": "0xcc86f7903f52eeb20c512d26c829e1545d577c47",
      "contractAddress": null,
      "l1BaseFeeScalar": "0x146b",
      "l1BlobBaseFee": "0x5c6712e7",
      "l1BlobBaseFeeScalar": "0xf79c5",
      "l1Fee": "0x35d4ccc5f4",
      "l1GasPrice": "0x20f370cd1",
      "l1GasUsed": "0x640"
    }
  ],
  "libraries": [],
  "pending": [],
  "returns": {},
  "timestamp": 1737505422,
  "chain": 10,
  "commit": "379868d"
}